:100000000C942A000C9447000C9447000C94470071
:100010000C9447000C94D7030C9447000C944700B1
:100020000C9447000C9447000C9447000C94460332
:100030000C9447000C9447000C9447000C94470024
:100040000C9447000C9447000C9447000C94470014
:100050000C94470011241FBECFE5D8E0DEBFCDBF12
:1000600010E0A0E6B0E0E0E9F8E002C005900D92F3
:10007000A036B107D9F720E0A0E6B0E001C01D929C
:10008000A138B207E1F70E9476000C9446040C9464
:10009000000061E081E40E948F01089541E060E08A
:1000A00081E40E94790041E061E081E40E947900EE
:1000B00082E00E94D00169E470E082E00E94B40214
:1000C00040ED57E060E070E082E00E94F60182E0DF
:1000D0000E94940248EE53E060E070E082E00E94EB
:1000E000F00260E081E40E948F01FFCF0E944E0089
:1000F000FFCF683008F080C0442321F0413009F47C
:1001000040C07CC08234B1F018F4813431F078C042
:100110008334E9F0843441F173C02AB381E090E084
:1001200002C0880F991F6A95E2F7809582238ABBE7
:1001300080E0089527B381E090E002C0880F991F06
:100140006A95E2F78095822387BB80E0089524B307
:1001500081E090E002C0880F991F6A95E2F78095D0
:10016000822384BB80E0089521B381E090E002C047
:10017000880F991F6A95E2F78095822381BB80E002
:1001800008958234A9F018F4813431F03BC08334EF
:10019000D9F0843429F136C02AB381E090E002C05E
:1001A000880F991F6A95E2F7822B8ABB80E0089539
:1001B00027B381E090E002C0880F991F6A95E2F7AB
:1001C000822B87BB80E0089524B381E090E002C0D9
:1001D000880F991F6A95E2F7822B84BB80E008950F
:1001E00021B381E090E002C0880F991F6A95E2F781
:1001F000822B81BB80E0089582E0089584E0089519
:1002000081E0089581E00895683008F080C04423BB
:1002100021F0413009F440C07CC08234B1F018F4C0
:10022000813431F078C08334E9F0843441F173C013
:100230002BB381E090E002C0880F991F6A95E2F726
:10024000809582238BBB80E0089528B381E090E005
:1002500002C0880F991F6A95E2F78095822388BBB8
:1002600080E0089525B381E090E002C0880F991FD7
:100270006A95E2F78095822385BB80E0089522B3DA
:1002800081E090E002C0880F991F6A95E2F780959F
:10029000822382BB80E008958234A9F018F481346F
:1002A00031F03BC08334D9F0843429F136C02BB30C
:1002B00081E090E002C0880F991F6A95E2F7822BD7
:1002C0008BBB80E0089528B381E090E002C0880FE6
:1002D000991F6A95E2F7822B88BB80E0089525B3C9
:1002E00081E090E002C0880F991F6A95E2F7822BA7
:1002F00085BB80E0089522B381E090E002C0880FC2
:10030000991F6A95E2F7822B82BB80E0089582E014
:10031000089583E0089581E0089581E008956830AC
:10032000D8F58234A9F018F4813431F037C0833421
:10033000D9F0843429F132C02BB381E090E002C0BF
:10034000880F991F6A95E2F782278BBB80E008959A
:1003500028B381E090E002C0880F991F6A95E2F708
:10036000822788BB80E0089525B381E090E002C039
:10037000880F991F6A95E2F7822785BB80E0089570
:1003800022B381E090E002C0880F991F6A95E2F7DE
:10039000822782BB80E0089582E0089581E008957D
:1003A00081110EC083B7877F83BF83B78F7B83BFE5
:1003B00089B7816089BF8FB780688FBF80E008955B
:1003C000813081F0823081F485B5877F85BD85B528
:1003D0008F7B85BD89B7806489BF8FB780688FBFE9
:1003E00080E0089580E0089581E008950F931F93C1
:1003F00081113FC0A8EEB3E09A01AB010E943B041B
:100400008B019C01689413F83695279517950795ED
:100410001694D1F7DC01CB01072E7CE0B695A795A9
:10042000979587957A95D1F7702D80937900909361
:100430007A00A0937B00B0937C00009378000023A7
:1004400009F468C0019502BF8091790090917A000B
:10045000A0917B00B0917C000196A11DB11D8093FD
:10046000790090937A00A0937B00B0937C0080E0A9
:1004700058C0813009F450C0823009F04FC0A8EE56
:10048000B3E09A01AB010E943B048B019C0168948C
:1004900013F836952795179507951694D1F7AB0164
:1004A000BC01032E3CE076956795579547953A95A4
:1004B000D1F7302D4093740050937500609376000F
:1004C00070937700D901C8019927AA27BB27809389
:1004D000700090937100A0937200B0937300009726
:1004E000A105B105E9F0819584BD809174009091DA
:1004F0007500A0917600B09177000196A11DB11D05
:100500008093740090937500A0937600B093770069
:1005100080E007C080E005C080E003C081E001C04A
:1005200080E01F910F91089581110BC083B7846003
:1005300083BF83B78D7F83BF83B78E7F83BF80E008
:100540000895813069F0823069F485B5846085BD95
:1005500085B5826085BD85B58E7F85BD80E00895B7
:1005600080E0089581E0089561157105A1F0811181
:1005700005C070936F0060936E000895813029F478
:1005800070936D0060936C000895823021F4709335
:100590006B0060936A000895811107C089B78E7F50
:1005A00089BF89B78D7F89BF0AC0813041F0823011
:1005B00031F489B78F7B89BF89B78F7789BF81E095
:1005C0000895811104C089B7816089BF07C0813057
:1005D00029F0823019F489B7806489BF81E00895D9
:1005E000CF92DF92EF92FF920F931F93882309F42B
:1005F00045C0813009F442C0823009F03FC06A0131
:100600007B010E94CC02A8EEB3E0A70196010E94F4
:100610003B046B017C01689413F8F694E794D7943B
:10062000C7941694D1F78B019C010F2EFCE03695F0
:10063000279517950795FA95D1F7F02DCC2051F015
:100640000F5F1F4F2F4F3F4FC194C4BC40E050E09D
:10065000BA010CC014BCFACF08B606FEFDCF88B7AD
:10066000806488BF4F5F5F4F6F4F7F4F40175107C8
:100670006207730788F382E00E94E10281E01F9124
:100680000F91FF90EF90DF90CF9008951F920F92FF
:100690000FB60F9211242F933F934F935F936F9355
:1006A0007F938F939F93AF93BF93EF93FF9380912B
:1006B0006900811135C08091650090916600A0911C
:1006C0006700B09168000196A11DB11D809365007F
:1006D00090936600A0936700B09368004091790002
:1006E00050917A0060917B0070917C00841795078F
:1006F000A607B70709F04AC0E0916E00F0916F00BD
:10070000309709F0099510926500109266001092DA
:1007100067001092680080917800819582BF36C092
:10072000809164008823C9F040E064E084E40E9482
:10073000040140E065E084E40E94040180917F00B0
:10074000819582BF80917F00909180008F3F9105BD
:1007500009F0E0F41092640019C041E064E084E420
:100760000E94040141E065E084E40E94040180915C
:100770007D00819582BF80917D0090917E008F3FAA
:10078000910509F018F481E080936400FF91EF91E6
:10079000BF91AF919F918F917F916F915F914F9199
:1007A0003F912F910F900FBE0F901F9018951F92A1
:1007B0000F920FB60F9211242F933F934F935F9395
:1007C0006F937F938F939F93AF93BF93EF93FF9319
:1007D0008091600090916100A0916200B0916300EF
:1007E0000196A11DB11D8093600090936100A093BC
:1007F0006200B09363004091740050917500609165
:1008000076007091770084179507A607B70799F4CB
:10081000E0916A00F0916B00309709F00995109211
:10082000600010926100109262001092630080914B
:100830007000819582BFFF91EF91BF91AF919F9121
:100840008F917F916F915F914F913F912F910F9079
:100850000FBE0F901F901895A29FB001B39FC001CB
:10086000A39F700D811D1124911DB29F700D811DDC
:100870001124911D08950E942C04A59F900DB49FF2
:10088000900DA49F800D911D11240895F894FFCF21
:00000001FF
