:100000000C9433000C9450000C9450000C9450004D
:100010000C9450000C946D060C9450000C945000FD
:100020000C9450000C9450000C9450000C94DC057F
:100030000C9450000C9450000C9450000C94500000
:100040000C9450000C9450000C9450000C945000F0
:100050000C94500080009500AA00BF00D400E90075
:10006000FE001301280111241FBECFE5D8E0DEBF3A
:10007000CDBF10E0A0E6B0E0E8ECFDE002C00590E6
:100080000D92A036B107D9F720E0A0E6B0E001C09C
:100090001D92AF37B207E1F70E9437030C94E206D6
:1000A0000C94000082E00E941C0582E00E94420540
:1000B0000E94400141E060E082E40E943A0341E096
:1000C00061E082E40E943A0341E062E082E40E943F
:1000D0003A0341E063E082E40E943A030E947D011A
:1000E000C82FCAC00E947D01C82F90E0FC01F19783
:1000F000E930F10508F0C0C0E65DFF4F0C94C20680
:1001000040E063E082E40E94C50340E062E082E4F4
:100110000E94C50340E061E082E40E94C50341E023
:1001200060E082E40E94C503A7C040E063E082E48F
:100130000E94C50340E062E082E40E94C50341E002
:1001400061E082E40E94C50340E060E082E40E9436
:10015000C50392C040E063E082E40E94C50340E032
:1001600062E082E40E94C50341E061E082E40E9413
:10017000C50341E060E082E40E94C5037DC040E029
:1001800063E082E40E94C50341E062E082E40E94F1
:10019000C50340E061E082E40E94C50340E060E006
:1001A00082E40E94C50368C040E063E082E40E94EC
:1001B000C50341E062E082E40E94C50340E061E0E3
:1001C00082E40E94C50341E060E082E40E94C5032E
:1001D00053C040E063E082E40E94C50341E062E076
:1001E00082E40E94C50341E061E082E40E94C5030D
:1001F00040E060E082E40E94C5033EC040E063E06E
:1002000082E40E94C50341E062E082E40E94C503EB
:1002100041E061E082E40E94C50341E060E082E4E5
:100220000E94C50329C041E063E082E40E94C50347
:1002300040E062E082E40E94C50340E061E082E4C5
:100240000E94C50340E060E082E40E94C50314C040
:1002500041E063E082E40E94C50340E062E082E4A2
:100260000E94C50340E061E082E40E94C50341E0D2
:1002700060E082E40E94C503CC2309F433CF2ECF83
:1002800041E062E083E40E943A0341E063E083E4FA
:100290000E943A0341E064E083E40E943A0341E0B3
:1002A00062E083E40E94C50341E063E083E40E94CE
:1002B000C50341E064E083E40E94C50340E065E0DB
:1002C00083E40E943A0340E066E083E40E943A033C
:1002D00040E067E083E40E943A0341E065E083E4A4
:1002E0000E94910441E066E083E40E94910441E0B1
:1002F00067E083E40E94910408951F93CF93DF93F6
:100300001F92CDB7DEB7198240E062E083E40E941D
:10031000C503AE014F5F5F4F65E083E40E94500468
:100320008981811124C046E450E060E070E082E001
:100330000E948605AE014F5F5F4F65E083E40E9437
:1003400050048981882349F010E012C0AE014F5F4C
:100350005F4F65E083E40E94500489818823B1F3F4
:1003600041E062E083E40E94C50311E301C010E0B4
:10037000AE014F5F5F4F66E083E40E9450048981C5
:10038000811122C046E450E060E070E082E00E940B
:100390008605AE014F5F5F4F66E083E40E94500424
:1003A0008981882341F010C0AE014F5F5F4F66E046
:1003B00083E40E94500489818823B1F341E062E024
:1003C00083E40E94C50312E3AE014F5F5F4F67E015
:1003D00083E40E9450048981811122C046E450E0E8
:1003E00060E070E082E00E948605AE014F5F5F4FE3
:1003F00067E083E40E9450048981882341F010C0A3
:10040000AE014F5F5F4F67E083E40E945004898133
:100410008823B1F341E062E083E40E94C50313E363
:1004200041E062E083E40E94C50340E063E083E4CE
:100430000E94C503AE014F5F5F4F65E083E40E94F9
:1004400050048981811122C046E450E060E070E0F0
:1004500082E00E948605AE014F5F5F4F65E083E456
:100460000E9450048981882341F010C0AE014F5F83
:100470005F4F65E083E40E94500489818823B1F3D3
:1004800041E063E083E40E94C50314E3AE014F5FE3
:100490005F4F66E083E40E9450048981811122C08D
:1004A00046E450E060E070E082E00E948605AE0124
:1004B0004F5F5F4F66E083E40E9450048981882388
:1004C00041F010C0AE014F5F5F4F66E083E40E94D1
:1004D000500489818823B1F341E063E083E40E9402
:1004E000C50315E3AE014F5F5F4F67E083E40E94F1
:1004F00050048981811122C046E450E060E070E040
:1005000082E00E948605AE014F5F5F4F67E083E4A3
:100510000E9450048981882341F010C0AE014F5FD2
:100520005F4F67E083E40E94500489818823B1F320
:1005300041E063E083E40E94C50316E341E063E029
:1005400083E40E94C50340E064E083E40E94C503A5
:10055000AE014F5F5F4F65E083E40E9450048981E4
:10056000811122C046E450E060E070E082E00E9429
:100570008605AE014F5F5F4F65E083E40E94500443
:100580008981882341F010C0AE014F5F5F4F65E065
:1005900083E40E94500489818823B1F341E064E040
:1005A00083E40E94C50317E3AE014F5F5F4F66E02F
:1005B00083E40E9450048981811122C046E450E006
:1005C00060E070E082E00E948605AE014F5F5F4F01
:1005D00066E083E40E9450048981882341F010C0C2
:1005E000AE014F5F5F4F66E083E40E945004898153
:1005F0008823B1F341E064E083E40E94C50318E37B
:10060000AE014F5F5F4F67E083E40E945004898131
:10061000811122C046E450E060E070E082E00E9478
:100620008605AE014F5F5F4F67E083E40E94500490
:100630008981882341F010C0AE014F5F5F4F67E0B2
:1006400083E40E94500489818823B1F341E064E08F
:1006500083E40E94C50319E341E064E083E40E945F
:10066000C503812F0F90DF91CF911F9108950E94B4
:100670005200FFCF683008F080C0442321F04130A1
:1006800009F440C07CC08234B1F018F4813431F0F8
:1006900078C08334E9F0843441F173C02AB381E037
:1006A00090E002C0880F991F6A95E2F78095822337
:1006B0008ABB80E0089527B381E090E002C0880FF4
:1006C000991F6A95E2F78095822387BB80E00895A1
:1006D00024B381E090E002C0880F991F6A95E2F789
:1006E0008095822384BB80E0089521B381E090E06F
:1006F00002C0880F991F6A95E2F78095822381BB1B
:1007000080E008958234A9F018F4813431F03BC0C0
:100710008334D9F0843429F136C02AB381E090E0E3
:1007200002C0880F991F6A95E2F7822B8ABB80E08E
:10073000089527B381E090E002C0880F991F6A9561
:10074000E2F7822B87BB80E0089524B381E090E03C
:1007500002C0880F991F6A95E2F7822B84BB80E064
:10076000089521B381E090E002C0880F991F6A9537
:10077000E2F7822B81BB80E0089582E0089584E057
:10078000089581E0089581E00895683008F080C000
:10079000442321F0413009F440C07CC08234B1F0E0
:1007A00018F4813431F078C08334E9F0843441F1B5
:1007B00073C02BB381E090E002C0880F991F6A9547
:1007C000E2F7809582238BBB80E0089528B381E017
:1007D00090E002C0880F991F6A95E2F78095822306
:1007E00088BB80E0089525B381E090E002C0880FC7
:1007F000991F6A95E2F78095822385BB80E0089572
:1008000022B381E090E002C0880F991F6A95E2F759
:100810008095822382BB80E008958234A9F018F489
:10082000813431F03BC08334D9F0843429F136C0AF
:100830002BB381E090E002C0880F991F6A95E2F720
:10084000822B8BBB80E0089528B381E090E002C04A
:10085000880F991F6A95E2F7822B88BB80E0089584
:1008600025B381E090E002C0880F991F6A95E2F7F6
:10087000822B85BB80E0089522B381E090E002C026
:10088000880F991F6A95E2F7822B82BB80E008955A
:1008900082E0089583E0089581E0089581E008955D
:1008A0006830D8F58234A9F018F4813431F037C0BB
:1008B0008334D9F0843429F132C089B390E002C086
:1008C000959587956A95E2F78170FA01808380E0BB
:1008D000089586B390E002C0959587956A95E2F7F2
:1008E0008170FA01808380E0089583B390E002C0B4
:1008F000959587956A95E2F78170FA01808380E08B
:10090000089580B390E002C0959587956A95E2F7C7
:100910008170FA01808380E0089582E0089581E08B
:100920000895683008F080C0442321F0413009F474
:1009300040C07CC08234B1F018F4813431F078C00A
:100940008334E9F0843441F173C02BB381E090E04B
:1009500002C0880F991F6A95E2F7809582238BBBAE
:1009600080E0089528B381E090E002C0880F991FCD
:100970006A95E2F78095822388BB80E0089525B3CD
:1009800081E090E002C0880F991F6A95E2F7809598
:10099000822385BB80E0089522B381E090E002C00D
:1009A000880F991F6A95E2F78095822382BB80E0C9
:1009B00008958234A9F018F4813431F03BC08334B7
:1009C000D9F0843429F136C02BB381E090E002C025
:1009D000880F991F6A95E2F7822B8BBB80E0089500
:1009E00028B381E090E002C0880F991F6A95E2F772
:1009F000822B88BB80E0089525B381E090E002C09F
:100A0000880F991F6A95E2F7822B85BB80E00895D5
:100A100022B381E090E002C0880F991F6A95E2F747
:100A2000822B82BB80E0089582E0089583E00895E0
:100A300081E0089581E0089581110EC083B7877F1A
:100A400083BF83B78F7B83BF89B7816089BF8FB72F
:100A500080688FBF80E00895813081F0823081F41A
:100A600085B5877F85BD85B58F7B85BD89B780645A
:100A700089BF8FB780688FBF80E0089580E00895B8
:100A800081E0089581110BC083B7846083BF83B771
:100A90008D7F83BF83B78E7F83BF80E008958130D1
:100AA00069F0823069F485B5846085BD85B5826062
:100AB00085BD85B58E7F85BD80E0089580E0089571
:100AC00081E00895811107C089B78E7F89BF89B7FA
:100AD0008D7F89BF0AC0813041F0823031F489B7FF
:100AE0008F7B89BF89B78F7789BF81E00895811196
:100AF00004C089B7816089BF07C0813029F0823086
:100B000019F489B7806489BF81E00895CF92DF929C
:100B1000EF92FF920F931F93882309F445C0813011
:100B200009F442C0823009F03FC06A017B010E9493
:100B30006205A8EEB3E0A70196010E94D7066B01FB
:100B40007C01689413F8F694E794D794C7941694AC
:100B5000D1F78B019C010F2EFCE036952795179558
:100B60000795FA95D1F7F02DCC2051F00F5F1F4F6C
:100B70002F4F3F4FC194C4BC40E050E0BA010CC0BD
:100B800014BCFACF08B606FEFDCF88B7806488BFD4
:100B90004F5F5F4F6F4F7F4F4017510762077307DB
:100BA00088F382E00E94770581E01F910F91FF900A
:100BB000EF90DF90CF9008951F920F920FB60F9293
:100BC00011242F933F934F935F936F937F938F9352
:100BD0009F93AF93BF93EF93FF938091690081112F
:100BE00035C08091650090916600A0916700B0913A
:100BF00068000196A11DB11D809365009093660069
:100C0000A0936700B09368004091770050917800FE
:100C10006091790070917A0084179507A607B7074D
:100C200009F04AC0E0916C00F0916D00309709F036
:100C3000099510926500109266001092670010925C
:100C4000680080917600819582BF36C080916400F3
:100C50008823C9F040E064E084E40E94C50340E0DA
:100C600065E084E40E94C50380917D00819582BF88
:100C700080917D0090917E008F3F910509F0E0F416
:100C80001092640019C041E064E084E40E94C5034E
:100C900041E065E084E40E94C50380917B0081957A
:100CA00082BF80917B0090917C008F3F910509F07D
:100CB00018F481E080936400FF91EF91BF91AF91B0
:100CC0009F918F917F916F915F914F913F912F9164
:100CD0000F900FBE0F901F9018951F920F920FB696
:100CE0000F9211242F933F934F935F936F937F93B2
:100CF0008F939F93AF93BF93EF93FF938091600087
:100D000090916100A0916200B09163000196A11DD5
:100D1000B11D8093600090936100A0936200B09336
:100D20006300409172005091730060917400709163
:100D3000750084179507A607B70799F4E0916A0034
:100D4000F0916B00309709F00995109260001092B5
:100D50006100109262001092630080916E00819594
:100D600082BFFF91EF91BF91AF919F918F917F9142
:100D70006F915F914F913F912F910F900FBE0F9008
:100D80001F901895EE0FFF1F0590F491E02D099428
:100D9000A29FB001B39FC001A39F700D811D1124BC
:100DA000911DB29F700D811D1124911D08950E9407
:100DB000C806A59F900DB49F900DA49F800D911D16
:080DC00011240895F894FFCFFF
:00000001FF
