:100000000C942A000C9447000C9447000C94470071
:100010000C9447000C940B0A0C9447000C94470076
:100020000C9447000C9447000C9447000C947A09F8
:100030000C9447000C9447000C9447000C94470024
:100040000C9447000C9447000C9447000C94470014
:100050000C94470011241FBECFE5D8E0DEBFCDBF12
:1000600010E0A0E6B0E0EAE7F5E102C005900D92ED
:10007000A03EB107D9F721E0A0EEB0E001C01D928B
:10008000A230B207E1F70E94E3050C94BB0A0C947E
:10009000000082E08093E0000895CF93DF93CDB716
:1000A000DEB728970FB6F894DEBF0FBECDBF82E053
:1000B0000E94040882E00E94000982E00E94C808B1
:1000C00040E157E260E070E082E00E942A080E946E
:1000D000A8050E94CD040E940F0581E40E94EB0454
:1000E00080E00E94C1010E94F4010E94D10588E0D5
:1000F000E3E6F0E0DE01119601900D928A95E1F7BA
:10010000BE016F5F7F4F84E00E948B0569E470E061
:1001100082E00E94E80828960FB6F894DEBF0FBE72
:10012000CDBFDF91CF910895CF93DF93CDB7DEB7E9
:10013000A8970FB6F894DEBF0FBECDBFE090600069
:1001400088E0EBE6F0E0DE01119601900D928A95D1
:10015000E1F71A86198681E1E5E7F0E0DE011B96FA
:1001600001900D928A95E1F7FE017C968DE0DF010A
:100170001D928A95E9F78091E000813061F138F0B5
:10018000823009F498C0833009F4D6C0F4CFCE0190
:1001900001960E94EE0448EE53E060E070E082E0D9
:1001A0000E9424090E940F0583E990E00E94EE045A
:1001B00064E170E080E090E00E941A0548EE53E0B0
:1001C00060E070E082E00E9424090E940F0581E057
:1001D0008093E000D0CF0E940F05CE010B960E94C5
:1001E000EE0480E00E94E30148EE53E060E070E03E
:1001F00082E00E9424090E940F0581EA90E00E949B
:10020000EE0460E081E00E9401058DEA90E00E942A
:10021000EE0448EE53E060E070E082E00E942409C2
:100220000E943102F82E01E03FC00E943102F82EF8
:100230001EEE1E0D0023D1F00E940F056EE080E03F
:100240000E9401056E2D70E080E090E00E941A058A
:1002500060E081E00E94010504C084E00E94EB049C
:10026000102F0FEF010F1111F8CF00E0B2E3FB16D2
:1002700061F083E3F81679F0A1E3FA1211C0B2E25B
:10028000BE1570F0E39401E00BC082E18E1540F4DE
:10029000EA9401E005C0E092600082E08093E00013
:1002A0008091E000813019F4A3E3FA12BECF82E01E
:1002B0008093E00060CF0E943102182FF12C38C0EB
:1002C0000E943102182F0E94D405082FF81619F148
:1002D0000E940F0589EB90E00E94EE04602F70E011
:1002E00080E090E00E941A0560E081E00E94010534
:1002F00080916000801738F480E00E94D20184E091
:100300000E94EB0408C080E00E94E30141E060E04D
:1003100081E00E947B05143319F0153329F007C0E2
:1003200081E08093E00003C083E08093E000F02E42
:100330001453123028F61FCF84E1809360000E948E
:100340000F0586EC90E00E94EE0460E081E00E94E0
:10035000010586ED90E00E94EE0464E170E080E02B
:1003600090E00E941A0548EE53E060E070E082E001
:100370000E94240982E00E94000982E08093E0004C
:10038000FACE81110DC0E82FF0E0EE0FFF1FEF59FC
:10039000FF4F41E0618180810E94220680E0089544
:1003A00081E0089581110DC0E82FF0E0EE0FFF1FEE
:1003B000EF59FF4F41E0618180810E94AD0680E0EE
:1003C000089581E0089581110DC0E82FF0E0EE0F4F
:1003D000FF1FEF59FF4F40E0618180810E94AD0611
:1003E00080E0089581E0089541E062E083E40E94A6
:1003F000220641E063E083E40E94220641E064E0DB
:1004000083E40E94220641E062E083E40E94AD069C
:1004100041E063E083E40E94AD0641E064E083E4F0
:100420000E94AD0640E065E083E40E94220640E0C1
:1004300066E083E40E94220640E067E083E40E94D5
:10044000220641E065E083E40E94790741E066E02E
:1004500083E40E94790741E067E083E40E94790722
:1004600008951F93CF93DF931F92CDB7DEB7198204
:1004700040E062E083E40E94AD06AE014F5F5F4F53
:1004800065E083E40E9438078981811124C046E435
:1004900050E060E070E082E00E942409AE014F5F0E
:1004A0005F4F65E083E40E9438078981882349F023
:1004B00010E012C0AE014F5F5F4F65E083E40E9421
:1004C000380789818823B1F341E062E083E40E9428
:1004D000AD0611E301C010E0AE014F5F5F4F66E073
:1004E00083E40E9438078981811122C046E450E0EC
:1004F00060E070E082E00E942409AE014F5F5F4F30
:1005000066E083E40E9438078981882341F010C0A7
:10051000AE014F5F5F4F66E083E40E943807898138
:100520008823B1F341E062E083E40E94AD0612E368
:10053000AE014F5F5F4F67E083E40E943807898117
:10054000811122C046E450E060E070E082E00E9449
:100550002409AE014F5F5F4F67E083E40E943807D4
:100560008981882341F010C0AE014F5F5F4F67E083
:1005700083E40E94380789818823B1F341E062E077
:1005800083E40E94AD0613E341E062E083E40E944D
:10059000AD0640E063E083E40E94AD06AE014F5F2C
:1005A0005F4F65E083E40E9438078981811122C092
:1005B00046E450E060E070E082E00E942409AE0171
:1005C0004F5F5F4F65E083E40E943807898188238D
:1005D00041F010C0AE014F5F5F4F65E083E40E94C1
:1005E000380789818823B1F341E063E083E40E9406
:1005F000AD0614E3AE014F5F5F4F66E083E40E94F7
:1006000038078981811122C046E450E060E070E043
:1006100082E00E942409AE014F5F5F4F66E083E4F1
:100620000E9438078981882341F010C0AE014F5FD6
:100630005F4F66E083E40E94380789818823B1F325
:1006400041E063E083E40E94AD0615E3AE014F5F35
:100650005F4F67E083E40E9438078981811122C0DF
:1006600046E450E060E070E082E00E942409AE01C0
:100670004F5F5F4F67E083E40E94380789818823DA
:1006800041F010C0AE014F5F5F4F67E083E40E940E
:10069000380789818823B1F341E063E083E40E9455
:1006A000AD0616E341E063E083E40E94AD0640E05E
:1006B00064E083E40E94AD06AE014F5F5F4F65E0EA
:1006C00083E40E9438078981811122C046E450E00A
:1006D00060E070E082E00E942409AE014F5F5F4F4E
:1006E00065E083E40E9438078981882341F010C0C7
:1006F000AE014F5F5F4F65E083E40E943807898158
:100700008823B1F341E064E083E40E94AD0617E37F
:10071000AE014F5F5F4F66E083E40E943807898136
:10072000811122C046E450E060E070E082E00E9467
:100730002409AE014F5F5F4F66E083E40E943807F3
:100740008981882341F010C0AE014F5F5F4F66E0A2
:1007500083E40E94380789818823B1F341E064E093
:1007600083E40E94AD0618E3AE014F5F5F4F67E080
:1007700083E40E9438078981811122C046E450E059
:1007800060E070E082E00E942409AE014F5F5F4F9D
:1007900067E083E40E9438078981882341F010C014
:1007A000AE014F5F5F4F67E083E40E9438078981A5
:1007B0008823B1F341E064E083E40E94AD0619E3CD
:1007C00041E064E083E40E94AD06812F0F90DF9149
:1007D000CF911F910895CF93C82F40E061E081E44D
:1007E0000E94AD064C2F441F4427441F67E081E45C
:1007F0000E94AD06C6FB442740F966E081E40E94F2
:10080000AD06C5FB442740F965E081E40E94AD06D2
:10081000C4FB442740F964E081E40E94AD0641E056
:1008200063E081E40E94AD0641E050E060E070E0EA
:1008300082E00E94240940E063E081E40E94AD066A
:1008400041E050E060E070E082E00E942409C3FBD8
:10085000442740F967E081E40E94AD06C2FB4427CB
:1008600040F966E081E40E94AD06C1FB442740F9EF
:1008700065E081E40E94AD064C2F417064E081E4A4
:100880000E94AD0641E063E081E40E94AD0641E0D4
:1008900050E060E070E082E00E94240940E063E004
:1008A00081E40E94AD0641E050E060E070E082E04B
:1008B0000E942409CF910895CF93C82F41E061E0B1
:1008C00081E40E94AD064C2F441F4427441F67E07B
:1008D00081E40E94AD06C6FB442740F966E081E44E
:1008E0000E94AD06C5FB442740F965E081E40E9403
:1008F000AD06C4FB442740F964E081E40E94AD06E4
:1009000041E063E081E40E94AD0641E050E060E038
:1009100070E082E00E94240940E063E081E40E94EC
:10092000AD0641E050E060E070E082E00E94240902
:10093000C3FB442740F967E081E40E94AD06C2FB97
:10094000442740F966E081E40E94AD06C1FB4427DC
:1009500040F965E081E40E94AD064C2F417064E0EF
:1009600081E40E94AD0641E063E081E40E94AD06AF
:1009700041E050E060E070E082E00E94240940E045
:1009800063E081E40E94AD0641E050E060E070E089
:1009900082E00E942409CF91089542E350E060E094
:1009A00070E082E00E94240982E00E94EB0388E26A
:1009B0000E94EB038CE00E94EB0381E00E94EB03BA
:1009C00041E050E060E070E082E00E94240986E0AF
:1009D0000E94EB0308950E945C0408950F931F93F7
:1009E000CF938C01C0E003C00E94EB04CF5FF801FD
:1009F000EC0FF11D80818111F7CFCF911F910F91E5
:100A00000895811105C0862F80680E94EB03089528
:100A1000813021F480EC860F0E94EB03089581E081
:100A20000E94EB0341E050E060E070E082E00E9451
:100A300024090895CF92DF92EF92FF921F93CF93F4
:100A4000DF93CDB7DEB72A970FB6F894DEBF0FBE9F
:100A5000CDBF6B017C01611571058105910521F404
:100A600080E30E94EB0439C099235CF4F094E09495
:100A7000D094C094C11CD11CE11CF11C8DE20E94D9
:100A8000EB0410E015C0C701B6012AE030E040E0F9
:100A900050E00E94820AE1E0F0E0EC0FFD1FE10F60
:100AA000F11D605D60831F5FC22ED32EE42EF52EF4
:100AB000C114D104E104F10431F70DC0E12FF0E0DD
:100AC000319781E090E08C0F9D1FE80FF91F808126
:100AD0000E94EB0411501111F1CF2A960FB6F89431
:100AE000DEBF0FBECDBFDF91CF911F91FF90EF9082
:100AF000DF90CF900895CF93DF93D42F0E9401050C
:100B0000C0E004C080E20E94EB04CF5FCD17D0F3B9
:100B1000DF91CF9108950F931F93CF938B0190E0B6
:100B20000896880F880F880F0E94EB03C0E007C06B
:100B3000F801EC0FF11D80810E945C04CF5FC8308A
:100B4000B8F380E80E94EB03CF911F910F910895B5
:100B500041E060E081E40E94220641E061E081E43E
:100B60000E94220641E062E081E40E94220641E008
:100B700063E081E40E94220641E064E081E40E9497
:100B8000220641E065E081E40E94220641E066E041
:100B900081E40E94220641E067E081E40E9422068F
:100BA00008950E94E80508950E9415069C01A4EF8F
:100BB000B1E00E94A10A2FEF33E040E050E00E9434
:100BC000600AC90108950E944D000E949400FFCF61
:100BD00040E060E081E40E94220687B1806487B92A
:100BE00087B18F7787B987B18F7D87B987B18F7EBE
:100BF00087B987B1877F87B987B18B7F87B987B17D
:100C00008D7F87B987B18E7F87B986B1846086B9B9
:100C100086B1826086B986B1816086B986B1806806
:100C200086B986B1806286B9089586B1806486B936
:100C3000349BFECF24B185B190E0982F8827820F96
:100C4000911D0895683008F080C0442321F04130A0
:100C500009F440C07CC08234B1F018F4813431F022
:100C600078C08334E9F0843441F173C02AB381E061
:100C700090E002C0880F991F6A95E2F78095822361
:100C80008ABB80E0089527B381E090E002C0880F1E
:100C9000991F6A95E2F78095822387BB80E00895CB
:100CA00024B381E090E002C0880F991F6A95E2F7B3
:100CB0008095822384BB80E0089521B381E090E099
:100CC00002C0880F991F6A95E2F78095822381BB45
:100CD00080E008958234A9F018F4813431F03BC0EB
:100CE0008334D9F0843429F136C02AB381E090E00E
:100CF00002C0880F991F6A95E2F7822B8ABB80E0B9
:100D0000089527B381E090E002C0880F991F6A958B
:100D1000E2F7822B87BB80E0089524B381E090E066
:100D200002C0880F991F6A95E2F7822B84BB80E08E
:100D3000089521B381E090E002C0880F991F6A9561
:100D4000E2F7822B81BB80E0089582E0089584E081
:100D5000089581E0089581E00895683008F080C02A
:100D6000442321F0413009F440C07CC08234B1F00A
:100D700018F4813431F078C08334E9F0843441F1DF
:100D800073C02BB381E090E002C0880F991F6A9571
:100D9000E2F7809582238BBB80E0089528B381E041
:100DA00090E002C0880F991F6A95E2F78095822330
:100DB00088BB80E0089525B381E090E002C0880FF1
:100DC000991F6A95E2F78095822385BB80E008959C
:100DD00022B381E090E002C0880F991F6A95E2F784
:100DE0008095822382BB80E008958234A9F018F4B4
:100DF000813431F03BC08334D9F0843429F136C0DA
:100E00002BB381E090E002C0880F991F6A95E2F74A
:100E1000822B8BBB80E0089528B381E090E002C074
:100E2000880F991F6A95E2F7822B88BB80E00895AE
:100E300025B381E090E002C0880F991F6A95E2F720
:100E4000822B85BB80E0089522B381E090E002C050
:100E5000880F991F6A95E2F7822B82BB80E0089584
:100E600082E0089583E0089581E0089581E0089587
:100E70006830D8F58234A9F018F4813431F037C0E5
:100E80008334D9F0843429F132C089B390E002C0B0
:100E9000959587956A95E2F78170FA01808380E0E5
:100EA000089586B390E002C0959587956A95E2F71C
:100EB0008170FA01808380E0089583B390E002C0DE
:100EC000959587956A95E2F78170FA01808380E0B5
:100ED000089580B390E002C0959587956A95E2F7F2
:100EE0008170FA01808380E0089582E0089581E0B6
:100EF0000895683008F080C0442321F0413009F49F
:100F000040C07CC08234B1F018F4813431F078C034
:100F10008334E9F0843441F173C02BB381E090E075
:100F200002C0880F991F6A95E2F7809582238BBBD8
:100F300080E0089528B381E090E002C0880F991FF7
:100F40006A95E2F78095822388BB80E0089525B3F7
:100F500081E090E002C0880F991F6A95E2F78095C2
:100F6000822385BB80E0089522B381E090E002C037
:100F7000880F991F6A95E2F78095822382BB80E0F3
:100F800008958234A9F018F4813431F03BC08334E1
:100F9000D9F0843429F136C02BB381E090E002C04F
:100FA000880F991F6A95E2F7822B8BBB80E008952A
:100FB00028B381E090E002C0880F991F6A95E2F79C
:100FC000822B88BB80E0089525B381E090E002C0C9
:100FD000880F991F6A95E2F7822B85BB80E0089500
:100FE00022B381E090E002C0880F991F6A95E2F772
:100FF000822B82BB80E0089582E0089583E008950B
:1010000081E0089581E0089581110EC083B7877F44
:1010100083BF83B78F7B83BF89B7816089BF8FB759
:1010200080688FBF80E00895813081F0823081F444
:1010300085B5877F85BD85B58F7B85BD89B7806484
:1010400089BF8FB780688FBF80E0089580E00895E2
:1010500081E008950F931F9381113FC0A8EEB3E084
:101060009A01AB010E94B00A8B019C01689413F8AD
:1010700036952795179507951694D1F7DC01CB0186
:10108000072E7CE0B695A795979587957A95D1F729
:10109000702D8093FA009093FB00A093FC00B09316
:1010A000FD000093F900002309F468C0019502BF18
:1010B0008091FA009091FB00A091FC00B091FD009E
:1010C0000196A11DB11D8093FA009093FB00A0939F
:1010D000FC00B093FD0080E058C0813009F450C09E
:1010E000823009F04FC0A8EEB3E09A01AB010E9434
:1010F000B00A8B019C01689413F8369527951795D3
:1011000007951694D1F7AB01BC01032E3CE0769510
:101110006795579547953A95D1F7302D4093F5004F
:101120005093F6006093F7007093F800D901C8015E
:101130009927AA27BB278093F1009093F200A093F0
:10114000F300B093F4000097A105B105E9F0819593
:1011500084BD8091F5009091F600A091F700B091C8
:10116000F8000196A11DB11D8093F5009093F60043
:10117000A093F700B093F80080E007C080E005C0BE
:1011800080E003C081E001C080E01F910F910895CD
:1011900081110BC083B7846083BF83B78D7F83BF0A
:1011A00083B78E7F83BF80E00895813069F08230FD
:1011B00069F485B5846085BD85B5826085BD85B5DA
:1011C0008E7F85BD80E0089580E0089581E00895D8
:1011D00061157105A1F0811105C07093F000609355
:1011E000EF000895813029F47093EE006093ED00D4
:1011F0000895823021F47093EC006093EB00089521
:10120000811107C089B78E7F89BF89B78D7F89BF5C
:101210000AC0813041F0823031F489B78F7B89BFB9
:1012200089B78F7789BF81E00895811104C089B79C
:10123000816089BF07C0813029F0823019F489B7F5
:10124000806489BF81E00895CF92DF92EF92FF9290
:101250000F931F93882309F445C0813009F442C0DD
:10126000823009F03FC06A017B010E940009A8EEAC
:10127000B3E0A70196010E94B00A6B017C0168945B
:1012800013F8F694E794D794C7941694D1F78B018A
:101290009C010F2EFCE03695279517950795FA953A
:1012A000D1F7F02DCC2051F00F5F1F4F2F4F3F4F44
:1012B000C194C4BC40E050E0BA010CC014BCFACFE9
:1012C00008B606FEFDCF88B7806488BF4F5F5F4FCA
:1012D0006F4F7F4F401751076207730788F382E013
:1012E0000E94150981E01F910F91FF90EF90DF9010
:1012F000CF9008951F920F920FB60F9211242F9343
:101300003F934F935F936F937F938F939F93AF938D
:10131000BF93EF93FF938091EA00811135C08091D4
:10132000E6009091E700A091E800B091E9000196F5
:10133000A11DB11D8093E6009093E700A093E80003
:10134000B093E9004091FA005091FB006091FC00DD
:101350007091FD0084179507A607B70709F04AC0EA
:10136000E091EF00F091F000309709F009951092AC
:10137000E6001092E7001092E8001092E9008091D8
:10138000F900819582BF36C08091E5008823C9F0BD
:1013900040E064E084E40E94AD0640E065E084E45F
:1013A0000E94AD0680910001819582BF809100016D
:1013B000909101018F3F910509F0E0F41092E50052
:1013C00019C041E064E084E40E94AD0641E065E0BC
:1013D00084E40E94AD068091FE00819582BF8091D9
:1013E000FE009091FF008F3F910509F018F481E015
:1013F0008093E500FF91EF91BF91AF919F918F9105
:101400007F916F915F914F913F912F910F900FBE00
:101410000F901F9018951F920F920FB60F921124E4
:101420002F933F934F935F936F937F938F939F93EC
:10143000AF93BF93EF93FF938091E1009091E2000F
:10144000A091E300B091E4000196A11DB11D80932D
:10145000E1009093E200A093E300B093E400409198
:10146000F5005091F6006091F7007091F800841734
:101470009507A607B70799F4E091EB00F091EC000F
:10148000309709F009951092E1001092E200109255
:10149000E3001092E4008091F100819582BFFF91FA
:1014A000EF91BF91AF919F918F917F916F915F91DC
:1014B0004F913F912F910F900FBE0F901F90189555
:1014C000A1E21A2EAA1BBB1BFD010DC0AA1FBB1F48
:1014D000EE1FFF1FA217B307E407F50720F0A21BBA
:1014E000B30BE40BF50B661F771F881F991F1A9427
:1014F00069F760957095809590959B01AC01BD0151
:10150000CF010895052E97FB1EF400940E94990ABE
:1015100057FD07D00E94600A07FC03D04EF40C94DC
:10152000990A50954095309521953F4F4F4F5F4F09
:10153000089590958095709561957F4F8F4F9F4F3F
:101540000895A29FB001B39FC001A39F700D811D9C
:101550001124911DB29F700D811D1124911D0895BC
:101560000E94A10AA59F900DB49F900DA49F800D8D
:0A157000911D11240895F894FFCF97
:10157A00144203040E0E0E1F00040057454C434F3D
:10158A004D4500000043686F6F73652074686520DD
:10159A0054656D703A000000000000000000000071
:1015AA0000000044656661756C742074656D702076
:1015BA00004D61782054656D70203335004D696E99
:1015CA002054656D70203138004375722E205465A1
:1015DA006D70203D200054656D702069732052653E
:1015EA0073657465640054656D702069732000002A
:00000001FF
