:100000000C942A000C9447000C9447000C94470071
:100010000C9447000C943E0A0C9447000C94470043
:100020000C9447000C9447000C9447000C94AD09C5
:100030000C9447000C9447000C9447000C94470024
:100040000C9447000C9447000C9447000C94470014
:100050000C94470011241FBECFE5D8E0DEBFCDBF12
:1000600011E0A0E6B0E0E0EEF5E102C005900D92EF
:10007000A030B107D9F721E0A0E0B1E001C01D92A6
:10008000A232B207E1F70E9416060C94EE0A0C9415
:10009000000082E0809300010895CF93DF93CDB7F5
:1000A000DEB728970FB6F894DEBF0FBECDBF82E053
:1000B0000E94370882E00E94330982E00E94FB0818
:1000C00040E157E260E070E082E00E945D080E943B
:1000D000DB050E9400050E94420581E40E941E0586
:1000E00080E00E94F4010E9427020E94040688E03A
:1000F000E3E6F0E0DE01119601900D928A95E1F7BA
:10010000BE016F5F7F4F84E00E94BE0569E470E02E
:1001100082E00E941B0928960FB6F894DEBF0FBE3E
:10012000CDBFDF91CF910895CF93DF93CDB7DEB7E9
:10013000A8970FB6F894DEBF0FBECDBFE090600069
:1001400088E0EBE6F0E0DE01119601900D928A95D1
:10015000E1F71A86198681E1E5E7F0E0DE011B96FA
:1001600001900D928A95E1F7FE017C968DE0DF010A
:100170001D928A95E9F780910001813061F138F094
:10018000823009F4B1C0833009F409C1F4CFCE0143
:1001900001960E94210548EE53E060E070E082E0A5
:1001A0000E9457090E94420583E990E00E942105C0
:1001B00064E170E080E090E00E944D0548EE53E07D
:1001C00060E070E082E00E9457090E94420581E0F1
:1001D00080930001D0CF0E944205CE010B960E9471
:1001E000210580E00E94160248EE53E060E070E0D6
:1001F00082E00E9457090E94420581EA90E00E9435
:10020000210560E081E00E9434058DEA90E00E94C3
:10021000210548EE53E060E070E082E00E9457095B
:100220000E946402F82E01E058C00E946402F82E79
:100230001EEE1E0D0023D1F00E9442056EE080E00C
:100240000E9434056E2D70E080E090E00E944D0524
:1002500060E081E00E94340504C084E00E941E0535
:10026000102F0FEF010F1111F8CF00E0FF2089F1DF
:10027000B2E3FB1661F083E3F81679F0A1E3FA121A
:1002800012C0B2E2BE1528F1E39401E022C082E17F
:100290008E15F8F4EA9401E01CC0E092600082E060
:1002A0008093000116C00E94420589EB90E00E94F5
:1002B000210560E081E00E94340589EC90E00E9415
:1002C000210544EF51E060E070E082E00E945709B0
:1002D00001E080910001813019F4A3E3FA12A5CF67
:1002E00082E08093000147CF0E946402182FF12C16
:1002F00051C00E946402182F0E940706082FF816AA
:1003000019F10E9442058AED90E00E942105602FBC
:1003100070E080E090E00E944D0560E081E00E9486
:10032000340580916000801738F480E00E94050257
:1003300084E00E941E0508C080E00E94160241E091
:1003400060E081E00E94AE05112319F1143319F029
:10035000153329F008C081E0809300011AC083E0C2
:100360008093000116C00E94420589EB90E00E9434
:10037000210560E081E00E94340589EC90E00E9454
:10038000210544EF51E060E070E082E00E945709EF
:1003900000E0F02E1453123008F0ABCFECCE84E125
:1003A000809360000E94420587EE90E00E94210544
:1003B00060E081E00E94340587EF90E00E94210513
:1003C00064E170E080E090E00E944D0548EE53E06B
:1003D00060E070E082E00E94570982E00E943309E9
:1003E00082E080930001C7CE81110DC0E82FF0E0BC
:1003F000EE0FFF1FEF59FF4F41E0618180810E94A6
:10040000550680E0089581E0089581110DC0E82F20
:10041000F0E0EE0FFF1FEF59FF4F41E06181808157
:100420000E94E00680E0089581E0089581110DC0EA
:10043000E82FF0E0EE0FFF1FEF59FF4F40E0618122
:1004400080810E94E00680E0089581E0089541E007
:1004500062E083E40E94550641E063E083E40E9489
:10046000550641E064E083E40E94550641E062E005
:1004700083E40E94E00641E063E083E40E94E0063A
:1004800041E064E083E40E94E00640E065E083E44C
:100490000E94550640E066E083E40E94550640E075
:1004A00067E083E40E94550641E065E083E40E9432
:1004B000AC0741E066E083E40E94AC0741E067E0FE
:1004C00083E40E94AC0708951F93CF93DF931F929C
:1004D000CDB7DEB7198240E062E083E40E94E00617
:1004E000AE014F5F5F4F65E083E40E946B07898137
:1004F000811124C046E450E060E070E082E00E9498
:100500005709AE014F5F5F4F65E083E40E946B07C0
:100510008981882349F010E012C0AE014F5F5F4F20
:1005200065E083E40E946B0789818823B1F341E091
:1005300062E083E40E94E00611E301C010E0AE0136
:100540004F5F5F4F66E083E40E946B0789818111F2
:1005500022C046E450E060E070E082E00E9457096B
:10056000AE014F5F5F4F66E083E40E946B078981B5
:10057000882341F010C0AE014F5F5F4F66E083E417
:100580000E946B0789818823B1F341E062E083E434
:100590000E94E00612E3AE014F5F5F4F67E083E425
:1005A0000E946B078981811122C046E450E060E01F
:1005B00070E082E00E945709AE014F5F5F4F67E035
:1005C00083E40E946B078981882341F010C0AE014B
:1005D0004F5F5F4F67E083E40E946B078981882348
:1005E000B1F341E062E083E40E94E00613E341E0FE
:1005F00062E083E40E94E00640E063E083E40E945E
:10060000E006AE014F5F5F4F65E083E40E946B0739
:100610008981811122C046E450E060E070E082E010
:100620000E945709AE014F5F5F4F65E083E40E946F
:100630006B078981882341F010C0AE014F5F5F4F87
:1006400065E083E40E946B0789818823B1F341E070
:1006500063E083E40E94E00614E3AE014F5F5F4F66
:1006600066E083E40E946B078981811122C046E421
:1006700050E060E070E082E00E945709AE014F5FF9
:100680005F4F66E083E40E946B078981882341F015
:1006900010C0AE014F5F5F4F66E083E40E946B07BE
:1006A00089818823B1F341E063E083E40E94E0069E
:1006B00015E3AE014F5F5F4F67E083E40E946B0775
:1006C0008981811122C046E450E060E070E082E060
:1006D0000E945709AE014F5F5F4F67E083E40E94BD
:1006E0006B078981882341F010C0AE014F5F5F4FD7
:1006F00067E083E40E946B0789818823B1F341E0BE
:1007000063E083E40E94E00616E341E063E083E4F3
:100710000E94E00640E064E083E40E94E006AE014F
:100720004F5F5F4F65E083E40E946B078981811111
:1007300022C046E450E060E070E082E00E94570989
:10074000AE014F5F5F4F65E083E40E946B078981D4
:10075000882341F010C0AE014F5F5F4F65E083E436
:100760000E946B0789818823B1F341E064E083E450
:100770000E94E00617E3AE014F5F5F4F66E083E43F
:100780000E946B078981811122C046E450E060E03D
:1007900070E082E00E945709AE014F5F5F4F66E054
:1007A00083E40E946B078981882341F010C0AE0169
:1007B0004F5F5F4F66E083E40E946B078981882367
:1007C000B1F341E064E083E40E94E00618E3AE0187
:1007D0004F5F5F4F67E083E40E946B07898181115F
:1007E00022C046E450E060E070E082E00E945709D9
:1007F000AE014F5F5F4F67E083E40E946B07898122
:10080000882341F010C0AE014F5F5F4F67E083E483
:100810000E946B0789818823B1F341E064E083E49F
:100820000E94E00619E341E064E083E40E94E006F0
:10083000812F0F90DF91CF911F910895CF93C82FF3
:1008400040E061E081E40E94E0064C2F441F442711
:10085000441F67E081E40E94E006C6FB442740F99C
:1008600066E081E40E94E006C5FB442740F965E0AC
:1008700081E40E94E006C4FB442740F964E081E47F
:100880000E94E00641E063E081E40E94E00641E06E
:1008900050E060E070E082E00E94570940E063E0D1
:1008A00081E40E94E00641E050E060E070E082E018
:1008B0000E945709C3FB442740F967E081E40E9486
:1008C000E006C2FB442740F966E081E40E94E006AE
:1008D000C1FB442740F965E081E40E94E0064C2F0B
:1008E000417064E081E40E94E00641E063E081E45D
:1008F0000E94E00641E050E060E070E082E00E948B
:10090000570940E063E081E40E94E00641E050E0E6
:1009100060E070E082E00E945709CF910895CF9384
:10092000C82F41E061E081E40E94E0064C2F441FA3
:100930004427441F67E081E40E94E006C6FB442789
:1009400040F966E081E40E94E006C5FB442740F9D7
:1009500065E081E40E94E006C4FB442740F964E0BE
:1009600081E40E94E00641E063E081E40E94E00649
:1009700041E050E060E070E082E00E94570940E012
:1009800063E081E40E94E00641E050E060E070E056
:1009900082E00E945709C3FB442740F967E081E4E5
:1009A0000E94E006C2FB442740F966E081E40E9411
:1009B000E006C1FB442740F965E081E40E94E006BF
:1009C0004C2F417064E081E40E94E00641E063E066
:1009D00081E40E94E00641E050E060E070E082E0E7
:1009E0000E94570940E063E081E40E94E00641E094
:1009F00050E060E070E082E00E945709CF910895D6
:100A000042E350E060E070E082E00E94570982E03B
:100A10000E941E0488E20E941E048CE00E941E04B4
:100A200081E00E941E0441E050E060E070E082E05E
:100A30000E94570986E00E941E0408950E948F04B8
:100A400008950F931F93CF938C01C0E003C00E94C1
:100A50001E05CF5FF801EC0FF11D80818111F7CFEA
:100A6000CF911F910F910895811105C0862F806845
:100A70000E941E040895813021F480EC860F0E94AC
:100A80001E04089581E00E941E0441E050E060E0F1
:100A900070E082E00E9457090895CF92DF92EF92B2
:100AA000FF921F93CF93DF93CDB7DEB72A970FB690
:100AB000F894DEBF0FBECDBF6B017C0161157105DF
:100AC0008105910521F480E30E941E0539C0992318
:100AD0005CF4F094E094D094C094C11CD11CE11C4F
:100AE000F11C8DE20E941E0510E015C0C701B60181
:100AF0002AE030E040E050E00E94B50AE1E0F0E09A
:100B0000EC0FFD1FE10FF11D605D60831F5FC22EC2
:100B1000D32EE42EF52EC114D104E104F10431F7F3
:100B20000DC0E12FF0E0319781E090E08C0F9D1F28
:100B3000E80FF91F80810E941E0511501111F1CF9D
:100B40002A960FB6F894DEBF0FBECDBFDF91CF91CE
:100B50001F91FF90EF90DF90CF900895CF93DF9398
:100B6000D42F0E943405C0E004C080E20E941E051C
:100B7000CF5FCD17D0F3DF91CF9108950F931F93DF
:100B8000CF938B0190E00896880F880F880F0E9402
:100B90001E04C0E007C0F801EC0FF11D80810E9427
:100BA0008F04CF5FC830B8F380E80E941E04CF9155
:100BB0001F910F91089541E060E081E40E94550685
:100BC00041E061E081E40E94550641E062E081E499
:100BD0000E94550641E063E081E40E94550641E031
:100BE00064E081E40E94550641E065E081E40E94F2
:100BF000550641E066E081E40E94550641E067E069
:100C000081E40E94550608950E941B0608950E94E3
:100C100048069C01A4EFB1E00E94D40A2FEF33E014
:100C200040E050E00E94930AC90108950E944D00DF
:100C30000E949400FFCF40E060E081E40E945506EE
:100C400087B1806487B987B18F7787B987B18F7D86
:100C500087B987B18F7E87B987B1877F87B987B119
:100C60008B7F87B987B18D7F87B987B18E7F87B931
:100C700086B1846086B986B1826086B986B18160AA
:100C800086B986B1806886B986B1806286B90895D2
:100C900086B1806486B9349BFECF24B185B190E0E3
:100CA000982F8827820F911D0895683008F080C022
:100CB000442321F0413009F440C07CC08234B1F0BB
:100CC00018F4813431F078C08334E9F0843441F190
:100CD00073C02AB381E090E002C0880F991F6A9523
:100CE000E2F7809582238ABB80E0089527B381E0F4
:100CF00090E002C0880F991F6A95E2F780958223E1
:100D000087BB80E0089524B381E090E002C0880FA3
:100D1000991F6A95E2F78095822384BB80E008954D
:100D200021B381E090E002C0880F991F6A95E2F735
:100D30008095822381BB80E008958234A9F018F465
:100D4000813431F03BC08334D9F0843429F136C08A
:100D50002AB381E090E002C0880F991F6A95E2F7FC
:100D6000822B8ABB80E0089527B381E090E002C027
:100D7000880F991F6A95E2F7822B87BB80E0089560
:100D800024B381E090E002C0880F991F6A95E2F7D2
:100D9000822B84BB80E0089521B381E090E002C003
:100DA000880F991F6A95E2F7822B81BB80E0089536
:100DB00082E0089584E0089581E0089581E0089537
:100DC000683008F080C0442321F0413009F440C06D
:100DD0007CC08234B1F018F4813431F078C08334AF
:100DE000E9F0843441F173C02BB381E090E002C09C
:100DF000880F991F6A95E2F7809582238BBB80E06C
:100E0000089528B381E090E002C0880F991F6A9589
:100E1000E2F78095822388BB80E0089525B381E0C6
:100E200090E002C0880F991F6A95E2F780958223AF
:100E300085BB80E0089522B381E090E002C0880F76
:100E4000991F6A95E2F78095822382BB80E008951E
:100E50008234A9F018F4813431F03BC08334D9F0E6
:100E6000843429F136C02BB381E090E002C0880FB2
:100E7000991F6A95E2F7822B8BBB80E0089528B317
:100E800081E090E002C0880F991F6A95E2F7822BFB
:100E900088BB80E0089525B381E090E002C0880F10
:100EA000991F6A95E2F7822B85BB80E0089522B3F3
:100EB00081E090E002C0880F991F6A95E2F7822BCB
:100EC00082BB80E0089582E0089583E0089581E088
:100ED000089581E008956830D8F58234A9F018F4B7
:100EE000813431F037C08334D9F0843429F132C0F1
:100EF00089B390E002C0959587956A95E2F7817075
:100F0000FA01808380E0089586B390E002C0959551
:100F100087956A95E2F78170FA01808380E00895F1
:100F200083B390E002C0959587956A95E2F781704A
:100F3000FA01808380E0089580B390E002C0959527
:100F400087956A95E2F78170FA01808380E00895C1
:100F500082E0089581E00895683008F080C044235D
:100F600021F0413009F440C07CC08234B1F018F463
:100F7000813431F078C08334E9F0843441F173C0B6
:100F80002BB381E090E002C0880F991F6A95E2F7C9
:100F9000809582238BBB80E0089528B381E090E0A8
:100FA00002C0880F991F6A95E2F78095822388BB5B
:100FB00080E0089525B381E090E002C0880F991F7A
:100FC0006A95E2F78095822385BB80E0089522B37D
:100FD00081E090E002C0880F991F6A95E2F7809542
:100FE000822382BB80E008958234A9F018F4813412
:100FF00031F03BC08334D9F0843429F136C02BB3AF
:1010000081E090E002C0880F991F6A95E2F7822B79
:101010008BBB80E0089528B381E090E002C0880F88
:10102000991F6A95E2F7822B88BB80E0089525B36B
:1010300081E090E002C0880F991F6A95E2F7822B49
:1010400085BB80E0089522B381E090E002C0880F64
:10105000991F6A95E2F7822B82BB80E0089582E0B7
:10106000089583E0089581E0089581E00895811155
:101070000EC083B7877F83BF83B78F7B83BF89B75A
:10108000816089BF8FB780688FBF80E0089581300D
:1010900081F0823081F485B5877F85BD85B58F7BF2
:1010A00085BD89B7806489BF8FB780688FBF80E0B6
:1010B000089580E0089581E008950F931F938111B2
:1010C0003FC0A8EEB3E09A01AB010E94E30A8B0196
:1010D0009C01689413F836952795179507951694F3
:1010E000D1F7DC01CB01072E7CE0B695A79597954B
:1010F00087957A95D1F7702D80931A0190931B01F3
:10110000A0931C01B0931D0100931901002309F461
:1011100068C0019502BF80911A0190911B01A091B6
:101120001C01B0911D010196A11DB11D80931A01F2
:1011300090931B01A0931C01B0931D0180E058C047
:10114000813009F450C0823009F04FC0A8EEB3E0FE
:101150009A01AB010E94E30A8B019C01689413F889
:1011600036952795179507951694D1F7AB01BC01D5
:10117000032E3CE076956795579547953A95D1F7BC
:10118000302D409315015093160160931701709311
:101190001801D901C8019927AA27BB2780931101FB
:1011A00090931201A0931301B09314010097A1052D
:1011B000B105E9F0819584BD8091150190911601EA
:1011C000A0911701B09118010196A11DB11D809346
:1011D000150190931601A0931701B093180180E0B8
:1011E00007C080E005C080E003C081E001C080E06E
:1011F0001F910F91089581110BC083B7846083BF45
:1012000083B78D7F83BF83B78E7F83BF80E00895D0
:10121000813069F0823069F485B5846085BD85B51B
:10122000826085BD85B58E7F85BD80E0089580E0B4
:10123000089581E0089561157105A1F0811105C03F
:101240007093100160930F010895813029F4709319
:101250000E0160930D010895823021F470930C010A
:1012600060930B010895811107C089B78E7F89BFF4
:1012700089B78D7F89BF0AC0813041F0823031F457
:1012800089B78F7B89BF89B78F7789BF81E0089540
:10129000811104C089B7816089BF07C0813029F0FE
:1012A000823019F489B7806489BF81E00895CF92B4
:1012B000DF92EF92FF920F931F93882309F445C0AA
:1012C000813009F442C0823009F03FC06A017B01DD
:1012D0000E943309A8EEB3E0A70196010E94E30A39
:1012E0006B017C01689413F8F694E794D794C79443
:1012F0001694D1F78B019C010F2EFCE036952795B3
:1013000017950795FA95D1F7F02DCC2051F00F5F86
:101310001F4F2F4F3F4FC194C4BC40E050E0BA0173
:101320000CC014BCFACF08B606FEFDCF88B78064A7
:1013300088BF4F5F5F4F6F4F7F4F40175107620766
:10134000730788F382E00E94480981E01F910F91A2
:10135000FF90EF90DF90CF9008951F920F920FB6FD
:101360000F9211242F933F934F935F936F937F932B
:101370008F939F93AF93BF93EF93FF9380910A0155
:10138000811135C08091060190910701A09108015B
:10139000B09109010196A11DB11D809306019093A2
:1013A0000701A0930801B093090140911A015091DF
:1013B0001B0160911C0170911D0184179507A60700
:1013C000B70709F04AC0E0910F01F0911001309782
:1013D00009F0099510920601109207011092080178
:1013E0001092090180911901819582BF36C08091C8
:1013F00005018823C9F040E064E084E40E94E0062F
:1014000040E065E084E40E94E0068091200181953F
:1014100082BF80912001909121018F3F910509F0B9
:10142000E0F41092050119C041E064E084E40E94F8
:10143000E00641E065E084E40E94E00680911E0140
:10144000819582BF80911E0190911F018F3F910570
:1014500009F018F481E080930501FF91EF91BF91AD
:10146000AF919F918F917F916F915F914F913F913C
:101470002F910F900FBE0F901F9018951F920F92F3
:101480000FB60F9211242F933F934F935F936F9357
:101490007F938F939F93AF93BF93EF93FF9380912D
:1014A000010190910201A0910301B0910401019604
:1014B000A11DB11D8093010190930201A09303012E
:1014C000B0930401409115015091160160911701EC
:1014D0007091180184179507A607B70799F4E09152
:1014E0000B01F0910C01309709F009951092010160
:1014F00010920201109203011092040180911101D7
:10150000819582BFFF91EF91BF91AF919F918F9194
:101510007F916F915F914F913F912F910F900FBEEF
:101520000F901F901895A1E21A2EAA1BBB1BFD015C
:101530000DC0AA1FBB1FEE1FFF1FA217B307E407B2
:10154000F50720F0A21BB30BE40BF50B661F771F0A
:10155000881F991F1A9469F76095709580959095EA
:101560009B01AC01BD01CF010895052E97FB1EF430
:1015700000940E94CC0A57FD07D00E94930A07FCF2
:1015800003D04EF40C94CC0A50954095309521959B
:101590003F4F4F4F5F4F089590958095709561959F
:1015A0007F4F8F4F9F4F0895A29FB001B39FC001FF
:1015B000A39F700D811D1124911DB29F700D811D7F
:1015C0001124911D08950E94D40AA59F900DB49FE7
:1015D000900DA49F800D911D11240895F894FFCFC4
:1015E000144203040E0E0E1F00040057454C434FD7
:1015F0004D4500000043686F6F7365207468652077
:1016000054656D703A00000000000000000000000A
:1016100000000044656661756C742074656D70200F
:10162000004D61782054656D70203335004D696E32
:101630002054656D702031380054686973206F70D4
:1016400065726174696F6E2000206973206E6F741B
:1016500020616C6C6F77656420004375722E205496
:10166000656D70203D200054656D702069732052B7
:101670006573657465640054656D7020697320003E
:00000001FF
