:100000000C942A000C9447000C9447000C94470071
:100010000C9447000C9465020C9447000C94470024
:100020000C9447000C9447000C9447000C94D401A6
:100030000C9447000C9447000C9447000C94470024
:100040000C9447000C9447000C9447000C94470014
:100050000C94470011241FBECFE5D8E0DEBFCDBF12
:1000600010E0A0E6B0E0EAEDF5E002C005900D92E8
:10007000A036B107D9F720E0A0E6B0E001C01D929C
:10008000AF37B207E1F70E9481000C94EB020C94A9
:1000900000000E946F0041E060E082E40E94BE0028
:1000A00041E061E082E40E94BE000E9472004A9733
:1000B00058F041E060E082E40E94490140E061E0E4
:1000C00082E40E944901F1CF41E061E082E40E94B4
:1000D000490140E060E082E40E944901E6CF0E94CD
:1000E000840008950E94B1009C01A4EFB1E00E9439
:1000F000DC022FEF33E040E050E00E94BA02C90179
:1001000008950E944900FFCF40E060E081E40E9432
:10011000BE0087B1806487B987B18F7787B987B10F
:100120008F7D87B987B18F7E87B987B1877F87B980
:1001300087B18B7F87B987B18D7F87B987B18E7F74
:1001400087B986B1846086B986B1826086B986B186
:10015000816086B986B1806886B986B1806286B9C9
:10016000089586B1806486B9349BFECF24B185B1F1
:1001700090E0982F8827820F911D0895683008F02D
:1001800080C0442321F0413009F440C07CC0823457
:10019000B1F018F4813431F078C08334E9F084345C
:1001A00041F173C02AB381E090E002C0880F991F2B
:1001B0006A95E2F7809582238ABB80E0089527B391
:1001C00081E090E002C0880F991F6A95E2F7809560
:1001D000822387BB80E0089524B381E090E002C0D1
:1001E000880F991F6A95E2F78095822384BB80E08F
:1001F000089521B381E090E002C0880F991F6A95AD
:10020000E2F78095822381BB80E008958234A9F0D3
:1002100018F4813431F03BC08334D9F0843429F1AF
:1002200036C02AB381E090E002C0880F991F6A951A
:10023000E2F7822B8ABB80E0089527B381E090E04B
:1002400002C0880F991F6A95E2F7822B87BB80E076
:10025000089524B381E090E002C0880F991F6A9549
:10026000E2F7822B84BB80E0089521B381E090E027
:1002700002C0880F991F6A95E2F7822B81BB80E04C
:10028000089582E0089584E0089581E0089581E072
:100290000895683008F080C0442321F0413009F40B
:1002A00040C07CC08234B1F018F4813431F078C0A1
:1002B0008334E9F0843441F173C02BB381E090E0E2
:1002C00002C0880F991F6A95E2F7809582238BBB45
:1002D00080E0089528B381E090E002C0880F991F64
:1002E0006A95E2F78095822388BB80E0089525B364
:1002F00081E090E002C0880F991F6A95E2F780952F
:10030000822385BB80E0089522B381E090E002C0A3
:10031000880F991F6A95E2F78095822382BB80E05F
:1003200008958234A9F018F4813431F03BC083344D
:10033000D9F0843429F136C02BB381E090E002C0BB
:10034000880F991F6A95E2F7822B8BBB80E0089596
:1003500028B381E090E002C0880F991F6A95E2F708
:10036000822B88BB80E0089525B381E090E002C035
:10037000880F991F6A95E2F7822B85BB80E008956C
:1003800022B381E090E002C0880F991F6A95E2F7DE
:10039000822B82BB80E0089582E0089583E0089577
:1003A00081E0089581E008951F920F920FB60F9299
:1003B00011242F933F934F935F936F937F938F936A
:1003C0009F93AF93BF93EF93FF9380916900811147
:1003D00035C08091650090916600A0916700B09152
:1003E00068000196A11DB11D809365009093660081
:1003F000A0936700B0936800409177005091780017
:100400006091790070917A0084179507A607B70765
:1004100009F04AC0E0916C00F0916D00309709F04E
:100420000995109265001092660010926700109274
:10043000680080917600819582BF36C0809164000B
:100440008823C9F040E064E084E40E94490140E070
:1004500065E084E40E94490180917D00819582BF1E
:1004600080917D0090917E008F3F910509F0E0F42E
:100470001092640019C041E064E084E40E944901E4
:1004800041E065E084E40E94490180917B00819510
:1004900082BF80917B0090917C008F3F910509F095
:1004A00018F481E080936400FF91EF91BF91AF91C8
:1004B0009F918F917F916F915F914F913F912F917C
:1004C0000F900FBE0F901F9018951F920F920FB6AE
:1004D0000F9211242F933F934F935F936F937F93CA
:1004E0008F939F93AF93BF93EF93FF93809160009F
:1004F00090916100A0916200B09163000196A11DEE
:10050000B11D8093600090936100A0936200B0934E
:10051000630040917200509173006091740070917B
:10052000750084179507A607B70799F4E0916A004C
:10053000F0916B00309709F00995109260001092CD
:100540006100109262001092630080916E008195AC
:1005500082BFFF91EF91BF91AF919F918F917F915A
:100560006F915F914F913F912F910F900FBE0F9020
:100570001F901895A1E21A2EAA1BBB1BFD010DC0EE
:10058000AA1FBB1FEE1FFF1FA217B307E407F50743
:1005900020F0A21BB30BE40BF50B661F771F881F1F
:1005A000991F1A9469F760957095809590959B01B5
:1005B000AC01BD01CF010895A29FB001B39FC0015E
:1005C000A39F700D811D1124911DB29F700D811D7F
:0A05D0001124911D0895F894FFCF47
:00000001FF
